{
  "_format": "hh-sol-artifact-1",
  "contractName": "Staking",
  "sourceName": "contracts/Staking.sol",
  "abi": [
    {
      "inputs": [],
      "stateMutability": "payable",
      "type": "constructor"
    },
    {
      "inputs": [
        {
          "internalType": "uint256",
          "name": "positionId",
          "type": "uint256"
        },
        {
          "internalType": "uint256",
          "name": "newUnlockDate",
          "type": "uint256"
        }
      ],
      "name": "changeUnlockDate",
      "outputs": [],
      "stateMutability": "nonpayable",
      "type": "function"
    },
    {
      "inputs": [
        {
          "internalType": "uint256",
          "name": "positionId",
          "type": "uint256"
        }
      ],
      "name": "closePosition",
      "outputs": [],
      "stateMutability": "nonpayable",
      "type": "function"
    },
    {
      "inputs": [],
      "name": "currentPositionId",
      "outputs": [
        {
          "internalType": "uint256",
          "name": "",
          "type": "uint256"
        }
      ],
      "stateMutability": "view",
      "type": "function"
    },
    {
      "inputs": [
        {
          "internalType": "uint256",
          "name": "numDays",
          "type": "uint256"
        }
      ],
      "name": "getInterestRate",
      "outputs": [
        {
          "internalType": "uint256",
          "name": "",
          "type": "uint256"
        }
      ],
      "stateMutability": "view",
      "type": "function"
    },
    {
      "inputs": [],
      "name": "getLockPeriods",
      "outputs": [
        {
          "internalType": "uint256[]",
          "name": "",
          "type": "uint256[]"
        }
      ],
      "stateMutability": "view",
      "type": "function"
    },
    {
      "inputs": [
        {
          "internalType": "uint256",
          "name": "positionId",
          "type": "uint256"
        }
      ],
      "name": "getPositionById",
      "outputs": [
        {
          "components": [
            {
              "internalType": "uint256",
              "name": "positionId",
              "type": "uint256"
            },
            {
              "internalType": "address",
              "name": "walletAddress",
              "type": "address"
            },
            {
              "internalType": "uint256",
              "name": "createdDate",
              "type": "uint256"
            },
            {
              "internalType": "uint256",
              "name": "unlockDate",
              "type": "uint256"
            },
            {
              "internalType": "uint256",
              "name": "percentInterest",
              "type": "uint256"
            },
            {
              "internalType": "uint256",
              "name": "weiStaked",
              "type": "uint256"
            },
            {
              "internalType": "uint256",
              "name": "weiInterest",
              "type": "uint256"
            },
            {
              "internalType": "bool",
              "name": "open",
              "type": "bool"
            }
          ],
          "internalType": "struct Staking.Position",
          "name": "",
          "type": "tuple"
        }
      ],
      "stateMutability": "view",
      "type": "function"
    },
    {
      "inputs": [
        {
          "internalType": "address",
          "name": "walletAddress",
          "type": "address"
        }
      ],
      "name": "getPositionIdsForAddress",
      "outputs": [
        {
          "internalType": "uint256[]",
          "name": "",
          "type": "uint256[]"
        }
      ],
      "stateMutability": "view",
      "type": "function"
    },
    {
      "inputs": [
        {
          "internalType": "uint256",
          "name": "",
          "type": "uint256"
        }
      ],
      "name": "lockPeriods",
      "outputs": [
        {
          "internalType": "uint256",
          "name": "",
          "type": "uint256"
        }
      ],
      "stateMutability": "view",
      "type": "function"
    },
    {
      "inputs": [
        {
          "internalType": "uint256",
          "name": "numDays",
          "type": "uint256"
        },
        {
          "internalType": "uint256",
          "name": "basisPoints",
          "type": "uint256"
        }
      ],
      "name": "modifyLockPeriods",
      "outputs": [],
      "stateMutability": "nonpayable",
      "type": "function"
    },
    {
      "inputs": [
        {
          "internalType": "address",
          "name": "",
          "type": "address"
        },
        {
          "internalType": "uint256",
          "name": "",
          "type": "uint256"
        }
      ],
      "name": "positionIdsByAddress",
      "outputs": [
        {
          "internalType": "uint256",
          "name": "",
          "type": "uint256"
        }
      ],
      "stateMutability": "view",
      "type": "function"
    },
    {
      "inputs": [
        {
          "internalType": "uint256",
          "name": "",
          "type": "uint256"
        }
      ],
      "name": "positions",
      "outputs": [
        {
          "internalType": "uint256",
          "name": "positionId",
          "type": "uint256"
        },
        {
          "internalType": "address",
          "name": "walletAddress",
          "type": "address"
        },
        {
          "internalType": "uint256",
          "name": "createdDate",
          "type": "uint256"
        },
        {
          "internalType": "uint256",
          "name": "unlockDate",
          "type": "uint256"
        },
        {
          "internalType": "uint256",
          "name": "percentInterest",
          "type": "uint256"
        },
        {
          "internalType": "uint256",
          "name": "weiStaked",
          "type": "uint256"
        },
        {
          "internalType": "uint256",
          "name": "weiInterest",
          "type": "uint256"
        },
        {
          "internalType": "bool",
          "name": "open",
          "type": "bool"
        }
      ],
      "stateMutability": "view",
      "type": "function"
    },
    {
      "inputs": [
        {
          "internalType": "uint256",
          "name": "numDays",
          "type": "uint256"
        }
      ],
      "name": "stakeEther",
      "outputs": [],
      "stateMutability": "payable",
      "type": "function"
    },
    {
      "inputs": [
        {
          "internalType": "uint256",
          "name": "",
          "type": "uint256"
        }
      ],
      "name": "tiers",
      "outputs": [
        {
          "internalType": "uint256",
          "name": "",
          "type": "uint256"
        }
      ],
      "stateMutability": "view",
      "type": "function"
    }
  ],
  "bytecode": "0x6080604052336000806101000a81548173ffffffffffffffffffffffffffffffffffffffff021916908373ffffffffffffffffffffffffffffffffffffffff16021790555060006009819055506102bc600c6000601e8152602001908152602001600020819055506103e8600c6000605a8152602001908152602001600020819055506104b0600c600060b4815260200190815260200160002081905550600d601e9080600181540180825580915050600190039060005260206000200160009091909190915055600d605a9080600181540180825580915050600190039060005260206000200160009091909190915055600d60b490806001815401808255809150506001900390600052602060002001600090919091909150556113d08061012a6000396000f3fe6080604052600436106100c25760003560e01c80634c8f2a781161007f578063b0f0475b11610059578063b0f0475b146102bb578063b838ec86146102e4578063c7c9d05514610321578063e4f908411461034a576100c2565b80634c8f2a781461021157806399fbab881461024e578063a126d60114610292576100c2565b8063039af9eb146100c75780630c196a74146101045780631131c8cd1461014157806340d98a441461016c57806341ee13be146101a957806345eae373146101d4575b600080fd5b3480156100d357600080fd5b506100ee60048036038101906100e99190610ce8565b610366565b6040516100fb9190610d24565b60405180910390f35b34801561011057600080fd5b5061012b60048036038101906101269190610ce8565b61037e565b6040516101389190610d24565b60405180910390f35b34801561014d57600080fd5b5061015661039b565b6040516101639190610d24565b60405180910390f35b34801561017857600080fd5b50610193600480360381019061018e9190610d9d565b6103a1565b6040516101a09190610e88565b60405180910390f35b3480156101b557600080fd5b506101be610438565b6040516101cb9190610e88565b60405180910390f35b3480156101e057600080fd5b506101fb60048036038101906101f69190610eaa565b610490565b6040516102089190610d24565b60405180910390f35b34801561021d57600080fd5b5061023860048036038101906102339190610ce8565b6104c1565b6040516102459190610d24565b60405180910390f35b34801561025a57600080fd5b5061027560048036038101906102709190610ce8565b6104e5565b604051610289989796959493929190610f14565b60405180910390f35b34801561029e57600080fd5b506102b960048036038101906102b49190610ce8565b61055a565b005b3480156102c757600080fd5b506102e260048036038101906102dd9190610f92565b61079f565b005b3480156102f057600080fd5b5061030b60048036038101906103069190610ce8565b610872565b6040516103189190611092565b60405180910390f35b34801561032d57600080fd5b5061034860048036038101906103439190610f92565b61094d565b005b610364600480360381019061035f9190610ce8565b6109fa565b005b600c6020528060005260406000206000915090505481565b6000600c6000838152602001908152602001600020549050919050565b60095481565b6060600b60008373ffffffffffffffffffffffffffffffffffffffff1673ffffffffffffffffffffffffffffffffffffffff16815260200190815260200160002080548060200260200160405190810160405280929190818152602001828054801561042c57602002820191906000526020600020905b815481526020019060010190808311610418575b50505050509050919050565b6060600d80548060200260200160405190810160405280929190818152602001828054801561048657602002820191906000526020600020905b815481526020019060010190808311610472575b5050505050905090565b600b60205281600052604060002081815481106104ac57600080fd5b90600052602060002001600091509150505481565b600d81815481106104d157600080fd5b906000526020600020016000915090505481565b600a6020528060005260406000206000915090508060000154908060010160009054906101000a900473ffffffffffffffffffffffffffffffffffffffff16908060020154908060030154908060040154908060050154908060060154908060070160009054906101000a900460ff16905088565b3373ffffffffffffffffffffffffffffffffffffffff16600a600083815260200190815260200160002060010160009054906101000a900473ffffffffffffffffffffffffffffffffffffffff1673ffffffffffffffffffffffffffffffffffffffff16146105fe576040517f08c379a00000000000000000000000000000000000000000000000000000000081526004016105f590611131565b60405180910390fd5b60011515600a600083815260200190815260200160002060070160009054906101000a900460ff16151514610668576040517f08c379a000000000000000000000000000000000000000000000000000000000815260040161065f9061119d565b60405180910390fd5b6000600a600083815260200190815260200160002060070160006101000a81548160ff021916908315150217905550600a60008281526020019081526020016000206003015442111561073e576000600a600083815260200190815260200160002060060154600a6000848152602001908152602001600020600501546106ef91906111ec565b90503373ffffffffffffffffffffffffffffffffffffffff166108fc829081150290604051600060405180830381858888f19350505050158015610737573d6000803e3d6000fd5b505061079c565b3373ffffffffffffffffffffffffffffffffffffffff166108fc600a6000848152602001908152602001600020600501549081150290604051600060405180830381858888f1935050505015801561079a573d6000803e3d6000fd5b505b50565b60008054906101000a900473ffffffffffffffffffffffffffffffffffffffff1673ffffffffffffffffffffffffffffffffffffffff163373ffffffffffffffffffffffffffffffffffffffff161461082d576040517f08c379a00000000000000000000000000000000000000000000000000000000081526004016108249061126c565b60405180910390fd5b80600c600084815260200190815260200160002081905550600d8290806001815401808255809150506001900390600052602060002001600090919091909150555050565b61087a610c50565b600a600083815260200190815260200160002060405180610100016040529081600082015481526020016001820160009054906101000a900473ffffffffffffffffffffffffffffffffffffffff1673ffffffffffffffffffffffffffffffffffffffff1673ffffffffffffffffffffffffffffffffffffffff16815260200160028201548152602001600382015481526020016004820154815260200160058201548152602001600682015481526020016007820160009054906101000a900460ff1615151515815250509050919050565b60008054906101000a900473ffffffffffffffffffffffffffffffffffffffff1673ffffffffffffffffffffffffffffffffffffffff163373ffffffffffffffffffffffffffffffffffffffff16146109db576040517f08c379a00000000000000000000000000000000000000000000000000000000081526004016109d29061126c565b60405180910390fd5b80600a6000848152602001908152602001600020600301819055505050565b6000600c60008381526020019081526020016000205411610a50576040517f08c379a0000000000000000000000000000000000000000000000000000000008152600401610a47906112d8565b60405180910390fd5b60405180610100016040528060095481526020013373ffffffffffffffffffffffffffffffffffffffff1681526020014281526020016201518083610a9591906112f8565b42610aa091906111ec565b8152602001600c6000848152602001908152602001600020548152602001348152602001610ae1600c60008581526020019081526020016000205434610c2d565b815260200160011515815250600a600060095481526020019081526020016000206000820151816000015560208201518160010160006101000a81548173ffffffffffffffffffffffffffffffffffffffff021916908373ffffffffffffffffffffffffffffffffffffffff16021790555060408201518160020155606082015181600301556080820151816004015560a0820151816005015560c0820151816006015560e08201518160070160006101000a81548160ff021916908315150217905550905050600b60003373ffffffffffffffffffffffffffffffffffffffff1673ffffffffffffffffffffffffffffffffffffffff1681526020019081526020016000206009549080600181540180825580915050600190039060005260206000200160009091909190915055600160096000828254610c2391906111ec565b9250508190555050565b60008161271084610c3e9190611369565b610c4891906112f8565b905092915050565b60405180610100016040528060008152602001600073ffffffffffffffffffffffffffffffffffffffff16815260200160008152602001600081526020016000815260200160008152602001600081526020016000151581525090565b600080fd5b6000819050919050565b610cc581610cb2565b8114610cd057600080fd5b50565b600081359050610ce281610cbc565b92915050565b600060208284031215610cfe57610cfd610cad565b5b6000610d0c84828501610cd3565b91505092915050565b610d1e81610cb2565b82525050565b6000602082019050610d396000830184610d15565b92915050565b600073ffffffffffffffffffffffffffffffffffffffff82169050919050565b6000610d6a82610d3f565b9050919050565b610d7a81610d5f565b8114610d8557600080fd5b50565b600081359050610d9781610d71565b92915050565b600060208284031215610db357610db2610cad565b5b6000610dc184828501610d88565b91505092915050565b600081519050919050565b600082825260208201905092915050565b6000819050602082019050919050565b610dff81610cb2565b82525050565b6000610e118383610df6565b60208301905092915050565b6000602082019050919050565b6000610e3582610dca565b610e3f8185610dd5565b9350610e4a83610de6565b8060005b83811015610e7b578151610e628882610e05565b9750610e6d83610e1d565b925050600181019050610e4e565b5085935050505092915050565b60006020820190508181036000830152610ea28184610e2a565b905092915050565b60008060408385031215610ec157610ec0610cad565b5b6000610ecf85828601610d88565b9250506020610ee085828601610cd3565b9150509250929050565b610ef381610d5f565b82525050565b60008115159050919050565b610f0e81610ef9565b82525050565b600061010082019050610f2a600083018b610d15565b610f37602083018a610eea565b610f446040830189610d15565b610f516060830188610d15565b610f5e6080830187610d15565b610f6b60a0830186610d15565b610f7860c0830185610d15565b610f8560e0830184610f05565b9998505050505050505050565b60008060408385031215610fa957610fa8610cad565b5b6000610fb785828601610cd3565b9250506020610fc885828601610cd3565b9150509250929050565b610fdb81610d5f565b82525050565b610fea81610ef9565b82525050565b610100820160008201516110076000850182610df6565b50602082015161101a6020850182610fd2565b50604082015161102d6040850182610df6565b5060608201516110406060850182610df6565b5060808201516110536080850182610df6565b5060a082015161106660a0850182610df6565b5060c082015161107960c0850182610df6565b5060e082015161108c60e0850182610fe1565b50505050565b6000610100820190506110a86000830184610ff0565b92915050565b600082825260208201905092915050565b7f4f6e6c7920706f736974696f6e2063726561746f72206d6179206d6f6469667960008201527f20706f736974696f6e0000000000000000000000000000000000000000000000602082015250565b600061111b6029836110ae565b9150611126826110bf565b604082019050919050565b6000602082019050818103600083015261114a8161110e565b9050919050565b7f506f736974696f6e20697320636c6f7365642000000000000000000000000000600082015250565b60006111876013836110ae565b915061119282611151565b602082019050919050565b600060208201905081810360008301526111b68161117a565b9050919050565b7f4e487b7100000000000000000000000000000000000000000000000000000000600052601160045260246000fd5b60006111f782610cb2565b915061120283610cb2565b925082820190508082111561121a576112196111bd565b5b92915050565b7f596f7520617265206e6f7420746865204f776e65720000000000000000000000600082015250565b60006112566015836110ae565b915061126182611220565b602082019050919050565b6000602082019050818103600083015261128581611249565b9050919050565b7f4d617070696e67206e6f7420666f756e64000000000000000000000000000000600082015250565b60006112c26011836110ae565b91506112cd8261128c565b602082019050919050565b600060208201905081810360008301526112f1816112b5565b9050919050565b600061130382610cb2565b915061130e83610cb2565b925082820261131c81610cb2565b91508282048414831517611333576113326111bd565b5b5092915050565b7f4e487b7100000000000000000000000000000000000000000000000000000000600052601260045260246000fd5b600061137482610cb2565b915061137f83610cb2565b92508261138f5761138e61133a565b5b82820490509291505056fea2646970667358221220c399e5312fc78e8b61dfdc6dbf5b4648342ac6eb1342374055a5b35b829fe25164736f6c63430008110033",
  "linkReferences": {},
  "deployedLinkReferences": {}
}